S0100000506F6E6747616D652E7372656306
S11300000C94B2020C94CF020C94CF020C94CF0245
S11300100C94CF020C94CF020C94CF020C94CF0218
S11300200C94CF020C94CF020C94CF020C94CF0208
S11300300C94CF020C94CF020C94CF020C94CF02F8
S11300400C94CF020C94CF020C94CF020C94CF02E8
S11300500C94CF020C94CF020C94CF020C94CF02D8
S11300600C94CF020C94CF0200000000007CDAF262
S1130070DA7C7CD6F2D67C387C3E7C38183C7E3CDC
S11300801838EABEEA38387AFE7A3800183C180084
S1130090FFE7C3E7FF0018241800FFE7DBE7FF0CC6
S11300A0125C607064949E946402FEA0A0E002FE60
S11300B0A0A4FC5A3CE73C5AFE7C3838101038386F
S11300C07CFE2844FE4428FAFA00FAFA6090FE8086
S11300D0FE006691A95606060606062945FF45292F
S11300E010207E201008047E0408101054381010CC
S11300F038541010780808080830783078300C1C10
S11301007C1C0C60707C706000000000000000FA31
S1130110000000E000E00028FE28FE282454FE54DD
S113012048C4C81026466C926A040A0010E0C00055
S1130130003844820000824438005438FE38541099
S1130140107C101000010E0C001010101010000094
S113015006060004081020407C8A92A27C0042FE1D
S113016002004E92929262848292B2CC182848FE87
S113017008E4A2A2A29C3C5292928C82848890E0D1
S11301806C9292926C629292947800002800000023
S1130190022C0000001028448228282828280082E5
S11301A044281040809A90607C82BA9A723E4888B3
S11301B0483EFE9292926C7C82828244FE828282CB
S11301C07CFE92929282FE909090807C82828ACE73
S11301D0FE101010FE0082FE8200040282FC80FEEB
S11301E010284482FE02020202FE403840FEFE2035
S11301F01008FE7C8282827CFE909090607C828AD1
S1130200847AFE90989462649292924CC080FE80AC
S1130210C0FC020202FCF8040204F8FC021C02FC0A
S1130220C6281028C6C0201E20C0869A92B2C200DA
S1130230FE828282402010080400828282FE2040D6
S1130240804020020202020200C0E01000042A2AB8
S11302501E02FE1422221C1C222222141C222214FE
S1130260FE1C2A2A2A1800107E9040182525391EC3
S1130270FE1020201E0022BE0200040202BC00FE6A
S1130280081422000082FE02003E201E201E3E10A2
S113029020201E1C2222221C3F1824241818242447
S11302A0183F3E10202010122A2A2A242020FC2243
S11302B0243C0202043E38040204383C020C023C92
S11302C02214081422320909093E22262A32220065
S11302D0106C82000000EE000000826C1000408070
S11302E04020403C64C4643C78858586485C0202B6
S11302F0045E1C2A2AAA9A84AAAA9E82842A2A1EF6
S11303008284AA2A1E02042AAA9E0230784A4E48EF
S11303109CAAAAAA9A9C2A2A2A9A9CAA2A2A1A003D
S113032000A23E820040A2BE420080A23E020F9480
S113033024940F0F14A4140F3E2AAAA200042A2AFC
S11303403E2A3E5090FE924C9292924C4C121212C3
S11303504C4C5212120C5C8282845E5C4202041E7B
S113036000B90505BE9C2222229CBC020202BC3CB0
S113037024FF2424127E92C266D4F43FF4D4FF9066
S1130380946F0403117E90C0042A2A9E82000022E6
S1130390BE820C1212524C1C0202445E005E50508B
S11303A04EBEB0988CBE649494F414649494946493
S11303B00C12B202041C10101010101010101CF4B7
S11303C00813355DF408142C5F0000DE00001028CB
S11303D054284444285428105500AA005555AA55B9
S11303E0AA55AA55AA55AA000000FF00080808FF4C
S11303F000282828FF000808FF00FF08080F080F3E
S11304002828283F002828EF00FF0000FF00FF28CD
S1130410282F203F2828E808F80808F808F8282892
S113042028F8000808080F00000000F80808080869
S1130430F8080808080F08000000FF080808080862
S113044008080808FF08000000FF280000FF00FF5C
S11304500000F808E800003F202F2828E808E828D2
S1130460282F202F0000FF00EF28282828282828DC
S1130470EF00EF282828E8280808F808F828282892
S11304802F2808080F080F0000F808F8000000F8EB
S1130490280000003F2800000F080F0808FF08FF8D
S11304A0282828FF28080808F8000000000F08FF83
S11304B0FFFFFFFF0F0F0F0F0FFFFFFF00000000F4
S11304C000FFFFF0F0F0F0F01C22221C223E5454F6
S11304D07C287E40406060407E407E40C6AA928276
S11304E0C61C22223C20027E04780460407E4040E8
S11304F099A5E7A5993854925438324E804E320C5F
S113050052B2B20C0C121E120C3D465A62BC7C92C2
S11305109292007E8080807E54545454542222FA55
S11305202222028A5222020222528A020000FF8000
S1130530C00701FF00001010D6D6106C486C246C64
S113054060F090F060000018180000000808000C2B
S113055002FF808000F88080780098B8E848003C6A
S11305603C3C3C0011241FBECFEFD8E0DEBFCDBF22
S113057015E0A0E0B1E0EEEDF3E102C005900D92CC
S1130580AC33B107D9F725E0ACE3B5E001C01D9267
S1130590A834B207E1F70E949D070C94ED090C946E
S11305A000005C9827E030E090E05D98AC01022EFA
S11305B002C0559547950A94E2F740FF02C05E9A3F
S11305C001C05E985D9A2150310978F70895569AD2
S11305D0559A549A539A529A5A985B982FE986E8F6
S11305E091E0215080409040E1F700C000005B9A08
S11305F083EA0E94D10280EA0E94D10280EC0E9428
S1130600D10280E40E94D1028CE20E94D10283EDE7
S113061090E30197F1F700C000008EE20E94D1023E
S113062083ED90E30197F1F700C000008FE20E9490
S1130630D10283EC99E00197F1F700C0000086E253
S11306400E94D10208955C9A27E030E090E05D9822
S1130650AC01022E02C0559547950A94E2F740FF7B
S113066002C05E9A01C05E985D9A2150310978F704
S11306700895CF93C82F81E80E94D1028C2F8F73E5
S11306800E94D102CF910895CF92DF92EF92FF9210
S11306900F931F93CF93DF930F2EF4E0EF2EF5E02B
S11306A0FF2EF02DEC010F2EF4E1CF2EF5E0DF2E1E
S11306B0F02DF7018081F2E0EF0EF11C806B0E94B7
S11306C0D10280E00E94D10280E10E94D10280EE3A
S11306D00E94D1028FEF0E9423038E0100581F4F06
S11306E089910E942303C017D107D1F7E801CE14E2
S11306F0DF04F9F6DF91CF911F910F91FF90EF90F6
S1130700DF90CF90089520E034E0FC01A90111921C
S113071041505040E1F7089530E0F901EE0FFF1F1A
S1130720EE0FFF1FE20FF31FE859FF4F55E0560F7E
S11307309C0170E8479F200D311D11249491D9012B
S1130740A60FB11D11979C936F5F31966513F6CF79
S113075008954150242F2695269526956150E62F1D
S1130760F0E030E8239FE00DF11D1124E80FF91F9C
S11307704095477081E090E002C0880F991F4A9528
S1130780E2F79081892B808308954150242F269588
S1130790269526956150E62FF0E030E8239FE00D82
S11307A0F11D1124E80FF91F4095477081E090E096
S11307B002C0880F991F4A95E2F78095908189239A
S11307C0808308958F929F92AF92BF92CF92DF92CF
S11307D0EF920F931F93CF93DF935C01C22F2613E5
S11307E02EC0401730F0C42ED12CC01AD108BAF450
S11307F055C010E0041B11090AF450C0C42E812C0A
S1130800912C2E2D4C2D6C2FC5010E94A9038FEF26
S1130810881A980AC394081519059CF73FC0812CBF
S1130820912C2E2D402F6C2FC5010E94A9038FEF10
S1130830881A980A0F5FC814D9049CF72FC00413B0
S11308402DC0621730F0C62ED12CC21AD108BAF4CA
S113085025C0C22FD0E0C61BD10902F1C62E812CBF
S1130860912C2E2D402F6C2DC5010E94A9038FEFD2
S1130870881A980AC394C815D9059CF70FC0812C0F
S1130880912C2E2D402F6C2FC5010E94A9038FEFB0
S1130890881A980ACF5FC814D9049CF7DF91CF91C6
S11308A01F910F91EF90DF90CF90BF90AF909F90EA
S11308B08F9008958F929F92AF92BF92CF92DF92C2
S11308C0EF92FF920F931F93CF93DF93A22EB12C3D
S11308D01A141B04C4F4FE2CD02F142F4C01C62F61
S11308E0C12CD12CD150D40FEF2C0D2F2C2F412FF4
S11308F06C2FC4010E94E2038FEFC81AD80ACF5F9D
S1130900CA14DB0489F7DF91CF911F910F91FF90F7
S1130910EF90DF90CF90BF90AF909F908F9008950D
S1130920BF92CF92DF92EF92FF920F931F93CF93D8
S1130930DF936C01F62E142FD02F2150C22FC60F37
S1130940042F2C2F0E94E203D150D10F0D2F2F2DF5
S1130950412F6F2DC6010E94E2032C2F4D2F6F2DC6
S1130960C6010E94E2032C2F412F6C2FC6010E9466
S1130970E203DF91CF911F910F91FF90EF90DF90F1
S1130980CF90BF9008952F923F924F925F926F92B3
S11309907F928F929F92AF92BF92CF92DF92EF920B
S11309A0FF920F931F93CF93DF93CDB7DEB72897B2
S11309B00FB6F894DEBF0FBECDBF6C016F83242E3B
S11309C0F02EA22EB12CC501880F991F21E030E032
S11309D03901681A790A882799278A199B099C0181
S11309E0220F331F3E832D8381E090E09C838B8311
S11309F044244394512C812C912CEF2C922D980D4E
S1130A009887092F2F812A0D2A83492F6F81C601C8
S1130A100E94E203122D1A0D012F3F81380D3983F4
S1130A20232F412F6F81C6010E94E2033F803818B3
S1130A30232D412F6F81C6010E94E20308851F8187
S1130A401A19212F402F6F81C6010E94E203822DC3
S1130A5088198887082F212F482F6F81C6010E948B
S1130A60E203122D1A19012F232D412F6F81C60184
S1130A700E94E2032981412F6F81C6010E94E20393
S1130A8008852A81402F6F81C6010E94E203161453
S1130A90170474F09FEF891A990A2B813C81620E26
S1130AA0731E2E5F3F4F3C832B831614170464F48C
S1130AB031E0A31AB10882E0480E511C8D819E8159
S1130AC0840D951D680E791EA814B9040CF095CFF9
S1130AD028960FB6F894DEBF0FBECDBFDF91CF913D
S1130AE01F910F91FF90EF90DF90CF90BF90AF9048
S1130AF09F908F907F906F905F904F903F902F903A
S1130B000895CF93C82F8A3019F48DE00E9481058F
S1130B10E0ECF0E0808185FFFDCFC093C60080E06B
S1130B2090E0CF910895E0ECF0E080818823ECF729
S1130B308091C60090E008951092C50087E68093E6
S1130B40C400E0ECF0E080818D7F808386E08093B8
S1130B50C20088E18093C100E2E4F5E08EE295E012
S1130B609383828380E295E0918380830895EF925A
S1130B700F93CF9384E091E00E948303EE24E394E7
S1130B8000E420E841E061E084E091E00E94900408
S1130B90C2E001E00C0FEE24E39420E44C2F60E467
S1130BA084E091E00E94E203CC5FCE3F91F7CCE178
S1130BB04C2F60E484E091E00E94C503CF5FC4320F
S1130BC0B9F720911C0540E066E384E091E00E94BF
S1130BD08C0320911B0540E066E484E091E00E94D0
S1130BE08C03EE24E3940AE022E040911A0563E0CA
S1130BF084E091E00E945A0422E0409119056DE7D7
S1130C0084E091E00E945A0401E022E0409115053D
S1130C106091170584E091E00E94C30484E091E0B0
S1130C200E944403CF910F91EF900895809117058E
S1130C30909118059C012250310926303105F4F0B9
S1130C4002968C379105A4F18091150590911605B3
S1130C502091190530E0BC0162507109A901465F79
S1130C605F4F461757073CF1AC014E5F5F4F81E081
S1130C7090E04217530724F580E00895809115050C
S1130C809091160520911A0530E0BC01625071095B
S1130C90A901465F5F4F4617570784F0AC014E5FCA
S1130CA05F4F81E090E04217530754F480E00895C9
S1130CB080E090E0089580E090E0089580E090E086
S1130CC0089580911705909118059C0122503109CF
S1130CD02230310544F480911B058F5F80931B05FE
S1130CE081E090E0089502968038910544F0809167
S1130CF01C058F5F80931C0581E090E0089580E0DF
S1130D0090E00895EF92FF920F931F93CF93DF9398
S1130D1080911405882309F453C080E490E09093F3
S1130D2018058093170580E290E090931605809350
S1130D30150580911F0590E00E947F0980913C0574
S1130D4090913D05892BF1F40E947A09BC01990F19
S1130D50880B990B0E940C0820E030E040E058E337
S1130D600E94750820E030E040EA50E40E947508D3
S1130D700E94D4076250710970933D0560933C054D
S1130D80672B11F30E947A09BC01990F880B990B08
S1130D900E940C0820E030E040E058E30E9475080F
S1130DA020E030E040EA50E40E9475080E94D40735
S1130DB06250710970933F0560933E0510921405CB
S1130DC0E0903C05F0903D05809117059091180541
S1130DD08E0D9F1D909318058093170500913E0575
S1130DE010913F05C0911505D0911605C00FD11F74
S1130DF0D0931605C09315050E941606892B19F188
S1130E00FF203CF480911A0590E005968C1B9D0B05
S1130E1006C08091190590E005968C1B9D0B9C01E2
S1130E20992314F42F5F3F4F35952795021B130B1D
S1130E3010933F0500933E05F194E194F108F0927C
S1130E403D05E0923C05CE010297039724F02296DB
S1130E50C034D1055CF080913E0590913F05919599
S1130E608195910990933F0580933E050E94610608
S1130E70892B19F081E08093140587EA91E60197A4
S1130E80F1F700C00000DF91CF911F910F91FF9007
S1130E90EF90089587B1856087B9409A4298399850
S1130EA04198EEE7F0E0808188608083ECE7F0E031
S1130EB0808183608083EAE7F0E0808180688083BA
S1130EC060911E056032B0F420911D0580911A05D1
S1130ED0281720F4835080931A05089530E0482F92
S1130EE050E0465F5F4F4217530734F58D5F8093A0
S1130EF01A05089570E080E090E00E940C0820E05C
S1130F0030E040EC52E40E9470081816ACF42091D2
S1130F101D0580911905281720F483508093190525
S1130F20089530E0482F50E0465F5F4F4217530763
S1130F301CF48D5F809319050895579A5F988BB1BF
S1130F408BB984B1856084B985B18A7F85B985B14F
S1130F5085B90E94E7028FEA0E94D10288E10E94CB
S1130F60390384E091E00E9444032FE786E998E97D
S1130F70215080409040E1F700C0000084E091E0FF
S1130F800E9483030E949C057894EAE7F0E0808144
S1130F90876080838081886080830E944A070E94E2
S1130FA082060E94B705F9CF0E94DB076894B1114D
S1130FB00C946A0808950E944F0888F09F5798F08F
S1130FC0B92F9927B751B0F0E1F0660F771F881F4A
S1130FD0991F1AF0BA95C9F714C0B13091F00E9464
S1130FE06908B1E008950C946908672F782F882761
S1130FF0B85F39F0B93FCCF3869577956795B3958B
S1131000D9F73EF490958095709561957F4F8F4FF9
S11310109F4F0895E89409C097FB3EF490958095FE
S1131020709561957F4F8F4F9F4F9923A9F0F92FAA
S113103096E9BB279395F695879577956795B79528
S1131040F111F8CFFAF4BB0F11F460FF1BC06F5F0E
S11310507F4F8F4F9F4F16C0882311F096E911C020
S1131060772321F09EE8872F762F05C0662371F041
S113107096E8862F70E060E02AF09A95660F771F55
S1131080881FDAF7880F9695879597F9089557FD85
S11310909058440F551F59F05F3F71F04795880FE2
S11310A097FB991F61F09F3F79F087950895121679
S11310B013061406551FF2CF4695F1DF08C0161625
S11310C017061806991FF1CF8695710561050894D6
S11310D00895E894BB2766277727CB0197F90895ED
S11310E00E94E20808F48FEF08950E9488080C9487
S11310F01D090E940F0938F00E94160920F095235B
S113110011F00C9406090C940C0911240C946A082F
S11311100E94470870F3959FC1F3950F50E0551F47
S1131120629FF001729FBB27F00DB11D639FAA2738
S1131130F00DB11DAA1F649F6627B00DA11D661F87
S1131140829F2227B00DA11D621F739FB00DA11DA8
S1131150621F839FA00D611D221F749F3327A00D62
S1131160611D231F849F600D211D822F762F6A2FFE
S113117011249F5750409AF0F1F088234AF0EE0F63
S1131180FF1FBB1F661F771F881F91505040A9F790
S11311909E3F510580F00C9406090C946A085F3F49
S11311A0E4F3983ED4F3869577956795B795F795CC
S11311B0E7959F5FC1F7FE2B880F911D9695879544
S11311C097F90895990F0008550FAA0BE0E8FEEF70
S11311D016161706E807F907C0F012161306E407F7
S11311E0F50798F0621B730B840B950B39F40A26F0
S11311F061F0232B242B252B21F408950A2609F4CE
S1131200A140A6958FEF811D811D089597F99F67D1
S113121080E870E060E008959FEF80EC089500247A
S11312200A941616170618060906089500240A9447
S113123012161306140605060895092E0394000CCD
S113124011F4882352F0BB0F40F4BF2B11F460FF5C
S113125004C06F5F7F4F8F4F9F4F08958F929F926F
S1131260AF92BF92CF92DF92EF92FF92CF93DF9330
S1131270EC01688179818A819B8161157105810501
S1131280910521F464E279ED8BE597E02DE133EFEC
S113129041E050E00E948A0949015A019B01AC01D6
S11312A0A7EAB1E40E94A9096B017C01ACEEB4EF9A
S11312B0A50194010E94B709DC01CB018C0D9D1D91
S11312C0AE1DBF1DB7FF03C00197A109B0488883B5
S11312D09983AA83BB839F77DF91CF91FF90EF908F
S11312E0DF90CF90BF90AF909F908F9008950E9411
S11312F02E09089580E091E00E942E090895A0E04F
S1131300B0E08093000190930101A0930201B09397
S113131003010895052E97FB1EF400940E94A10971
S113132057FD07D00E94BC0907FC03D04EF40C946F
S1131330A10950954095309521953F4F4F4F5F4FF0
S1131340089590958095709561957F4F8F4F9F4F2D
S113135008950E94DE09A59F900DB49F900DA49F4F
S1131360800D911D11240895B7FF0C94A9090E94C2
S1131370A909821B930B0895A1E21A2EAA1BBB1B79
S1131380FD010DC0AA1FBB1FEE1FFF1FA217B3074D
S1131390E407F50720F0A21BB30BE40BF50B661F63
S11313A0771F881F991F1A9469F760957095809527
S11313B090959B01AC01BD01CF010895A29FB0019E
S11313C0B39FC001A39F700D811D1124911DB29F75
S11113D0700D811D1124911D0895F894FFCF16
S11313DE010000007F7F7F7F717F717F7F7F7F7F22
S11313EE7E7F7A7B7F7F7F7F7F7F7F7F7F717F7F13
S11313FE717F7F7F0000606060787F7F7F7F7F607A
S113140E6060606060707078783E3F1F1F0F070148
S113141E00000000000000000000000000000000BA
S113142E00000000000000000000000000000000AA
S113143E000000000000000000000000000000009A
S113144E000000000000000000000000000000008A
S113145E00000000FFFFF0F0F0F0F0F0F0F0F0F01C
S113146EF1F3F7FFFFFFF7F1F0F0F0F0F0F0F0F02A
S113147EF0F0F0FF000000000000FFFFFFFFFF0090
S113148E0000000000000000000083FFFFFFFFFFCC
S113149E3C000101030303030303010100000000E8
S11314AE010101010303030303000001010303030C
S11314BE0303030100000000000001010103030304
S11314CE03030000000101030303030301010000F1
S11314DE00000000E0FF03000103070F1E3E7FFF24
S11314EEFFFF9F0F0F8FFFFFFF7F3E1E0F070301AE
S11314FE00013FFC000000000000FFFFFFFFFF1C87
S113150E1C1C1C1C1C1C1C3C78F8F8F8F1EFDFFFAB
S113151E7FFFE1C18181818181C1E1F9FFFF7F1FDD
S113152E878080C0FFFFFFFFFF78F0E0C0C0C0C01F
S113153EC0E0FFFFFFFF3F070000808080FFFFFF3A
S113154EFFFF3C78F0E0C0C0C0C0E0F0FFFFFF7FBB
S113155E1F0000000080E0F8FCFFFF3F1F1E3CF858
S113156EF0E0C08000C0E0F0F83C1E1F3FFFFFFC1F
S113157EF8E08000000000000000FFFFFFFFFF0006
S113158E000000000000000000000000FEFFFFFF4E
S113159EFFBF81808080808080808080808080807A
S11315AE80000000FFFFFFFFFF00000000000000AE
S11315BE0000FFFFFFFFFFFF0000000000FFFFFF22
S11315CEFFFF00000000000000000000FFFFFFFF0F
S11315DEFF00000000000000000080C0E070301822
S11315EE0C0C0606060C0C18183060E0C0800000C7
S11315FE000000000000060E0E3EFEFEFEFEFE7E05
S113160E0E0E060000000000000000000080E0F056
S113161EF8FCFC7E3E1E0E0E0E060E0E0E1C3878C8
S113162EE6060E1EFEFEFEFEFE0E0E060000000672
S113163E060EFEFEFEFEFEFE0E0E06060EFEFEFE60
S113164EFEFE7E0E0E06000000060E0EFEFEFEFED2
S113165EFE1E0E0600000000000000000000000048
S113166E0000000000000000000001010000000066
S113167E0000000000000000000000000000000157
S113168E0101000000000000010100000000000044
S113169E0000000000000000010101000000000035
S11316AE0000010100000000000000000000000026
S11316BE0000000000000000000000000000000018
S11316CE0000000000000000000000000000000008
S11316DE000000000000FFFFCECECECE001F1F1F65
S11316EE38381F1F1C383C1F0F00FFFF1C38381FD3
S11316FE1F07071F1F3B3B1F1F07071F1F3838FFFE
S113170EFFFF000F1F38381CFFFF000F1F1F3B3B4E
S113171E1F1F070F1F1F3838FFFFFF000000007840
S113172EFCFCCECFC7C3181F1F03031F1F181E1F99
S113173E3F3B1B0118FFFF1818000F1F3B3B3B1FBD
S113174E0F001F1F1C383C1F1F18383F1F07001F98
S113175E3F3B3B190000F0F07070707000F0F0F039
S113176E0000F0F0000000F0F000F0F0F07070F007
S113177EE080C0E0F07030707000C0E0F07070E097
S113178EF0F000E0F0707070F0F000C0E0F0703037
S113179E707000C0E0F07070F0F0F00000000060B7
S11317AE70703070F0E00000EEFEFCE0000070702F
S11317BE30F0F0E000E0F0707000E0F07030307067
S11317CE6000F0F0000000F0F00000F0F0F0607047
S11317DE30B0F0E003000200010000000700060034
S11317EE0500040001200040001B1F3030050C16BC
S11317FE000000010000000000009305000000003E
S10F180E00020000000081050000000042
S9030000FC
