S0100000506F6E6747616D652E7372656306
S11300000C9434000C9451000C9451000C94510045
S11300100C9451000C9451000C9451000C94510018
S11300200C9451000C9451000C9451000C94510008
S11300300C9451000C9451000C9451000C945100F8
S11300400C9451000C9451000C9451000C945100E8
S11300500C9451000C9451000C9451000C945100D8
S11300600C9451000C94510011241FBECFEFD8E022
S1130070DEBFCDBF15E0A0E0B1E0E4E0F9E002C0EE
S113008005900D92A433B107D9F725E0A4E3B5E0B8
S113009001C01D92AB33B207E1F70E946B010C94CF
S11300A080040C9400005C9827E030E090E05D98B8
S11300B0AC01022E02C0559547950A94E2F740FF21
S11300C002C05E9A01C05E985D9A2150310978F7AA
S11300D00895569A559A549A539A529A5A985B98F4
S11300E02FE986E891E0215080409040E1F700C07C
S11300F000005B9A83EA0E94530080EA0E94530046
S113010080EC0E94530080E40E9453008CE20E9421
S1130110530083ED90E30197F1F700C000008EE2F5
S11301200E94530083ED90E30197F1F700C00000B3
S11301308FE20E94530083EC99E00197F1F700C02D
S1130140000086E20E94530008955C9A27E030E0A4
S113015090E05D98AC01022E02C0559547950A9433
S1130160E2F740FF02C05E9A01C05E985D9A21509A
S1130170310978F70895CF93C82F81E80E9453007E
S11301808C2F8F730E945300CF910895CF92DF92EA
S1130190EF92FF920F931F93CF93DF930F2EF0E014
S11301A0EF2EF5E0FF2EF02DEC010F2EF0E1CF2E17
S11301B0F5E0DF2EF02DF7018081F2E0EF0EF11C67
S11301C0806B0E94530080E00E94530080E10E94F3
S11301D0530080EE0E9453008FEF0E94A5008E0111
S11301E000581F4F89910E94A500C017D107D1F76D
S11301F0E801CE14DF04F9F6DF91CF911F910F913E
S1130200FF90EF90DF90CF90089520E034E0FC0160
S1130210A901119241505040E1F70895DF92EF9205
S1130220FF920F931F93CF93DF938C01D62EF42E5E
S1130230242F30E02F5F3F4FC90199230CF4079618
S1130240959587959595879595958795EC01DD27E7
S1130250DF93CF9380E195E09F938F930E94A20157
S11302609F2D977088E0F82EF91A1F92FF928BE168
S113027095E09F938F930E94A20181E090E09C01FE
S113028002C0220F331FFA94E2F77901C9019927BA
S11302909F938F9387E295E09F938F930E94A2018F
S11302A0CC0FDD1FCC0FDD1FCC0FDD1FC00FD11F06
S11302B0CD0DD11DE8828DB79EB70C960FB6F8947C
S11302C09EBF0FBE8DBFDF91CF911F910F91FF9005
S11302D0EF90DF9008958AB18C618AB98BB1837EE7
S11302E08BB98BB18BB90E9469008FEA0E945300CD
S11302F088E10E94BB0080E091E00E94C6002FE7E5
S113030086E998E9215080409040E1F700C0000060
S113031080E091E00E940501209134054AE06AE002
S113032080E091E00E940E0180E091E00E94C6000E
S11303302FE784E89EE1215080409040E1F700C01F
S11303400000EACFA0E0B0E0E8EAF1E00C94590440
S1130350AE014B5F5F4FFA0161917191AF018091E2
S11303603705909138050E94B801E2E00C947504B9
S1130370ABE0B0E0EEEBF1E00C9449046C017B01DE
S11303808A01FC0117821682838181FFCCC1CE01D0
S113039001963C01F6019381F70193FD859193FF4A
S11303A081917F01882309F4BAC1853239F493FD20
S11303B0859193FF81917F01853229F4B60190E004
S11303C00E94AF03E7CF912C212C312CFFE1F315D0
S11303D0D8F08B3279F038F4803279F08332A1F49A
S11303E0232D20611DC08D3261F0803369F4232DEB
S11303F0216016C0832D8260382EE32DE4603E2EEA
S11304002AC0F32DF8601DC037FC2DC020ED280F45
S11304102A3040F08E32B9F436FC81C1232D206499
S1130420322E19C036FE06C08AE0989E200D112493
S1130430922E11C0EAE02E9E200D1124222EF32DBF
S1130440F0623F2E08C08C3621F4832D8068382E4C
S113045002C0883641F4F70193FD859193FF8191A1
S11304607F018111B3CF982F9F7D9554933028F449
S11304700C5F1F4F9FE399830DC0833631F08337A0
S113048071F0833509F059C021C0F8018081898356
S11304900E5F1F4F88248394912C530113C02801AD
S11304A0F2E04F0E511CF801A080B18036FE03C06B
S11304B0692D70E002C06FEF7FEFC5010E94A403B5
S11304C04C018201F32DFF773F2E16C0280122E054
S11304D0420E511CF801A080B18036FE03C0692D84
S11304E070E002C06FEF7FEFC5010E9499034C01D9
S11304F0F32DF0683F2E820133FC1BC0822D90E067
S113050088169906B0F4B60180E290E00E94AF0329
S11305102A94F4CFF50137FC859137FE81915F0170
S1130520B60190E00E94AF0321102A9421E0821AC0
S113053091088114910471F7E8C0843611F089366A
S113054041F5F80137FE07C0608171818281938192
S11305500C5F1F4F08C060817181072E000C880B4F
S1130560990B0E5F1F4FF32DFF763F2E97FF09C0A7
S113057090958095709561957F4F8F4F9F4FF06850
S11305803F2E2AE030E0A3010E94EB03882E861858
S113059045C0853731F4232D2F7EB22E2AE030E07A
S11305A025C0932D997FB92E8F36C1F018F4883564
S11305B079F0B5C0803719F0883721F0B0C0E92F41
S11305C0E061BE2EB4FE0DC0FB2DF460BF2E09C049
S11305D034FE0AC0292F2660B22E06C028E030E07F
S11305E005C020E130E002C020E132E0F801B7FEAE
S11305F007C060817181828193810C5F1F4F06C0A7
S11306006081718180E090E00E5F1F4FA3010E9422
S1130610EB03882E8618FB2DFF773F2E36FE0DC088
S1130620232D2E7FA22E891458F434FE0BC032FCE5
S113063009C0832D8E7EA82E05C0B82CA32C03C020
S1130640B82C01C0B92CA4FE0FC0FE01E80DF11DA9
S11306508081803321F49A2D997EA92E09C0A2FEAF
S113066006C0B394B39404C08A2D867809F0B39479
S1130670A3FC11C0A0FE06C0B21488F4280C922C6E
S11306809B180EC0B21460F4B60180E290E00E94A0
S1130690AF03B394F7CFB21418F42B1802C0982CFC
S11306A0212CA4FE10C0B60180E390E00E94AF03A9
S11306B0A2FE17C0A1FC03C088E790E002C088E551
S11306C090E0B6010CC08A2D867859F0A1FE02C0D4
S11306D08BE201C080E2A7FC8DE2B60190E00E94AB
S11306E0AF03891438F4B60180E390E00E94AF03AD
S11306F09A94F7CF8A94F301E80DF11D8081B60135
S113070090E00E94AF038110F5CF222009F442CE7D
S1130710B60180E290E00E94AF032A94F6CFF6017E
S11307208681978102C08FEF9FEF2B96E2E10C94B4
S11307306504FC010590615070400110D8F7809564
S113074090958E0F9F1F0895FC0161507040019099
S11307500110D8F7809590958E0F9F1F08950F93E1
S11307601F93CF93DF93FB01238121FD03C08FEF00
S11307709FEF2CC022FF16C046815781248135810A
S11307804217530744F4A081B1819D012F5F3F4F6D
S1130790318320838C93268137812F5F3F4F3783AA
S11307A0268314C08B01EC01FB010084F185E02D4C
S11307B00995892BE1F6D80116968D919C9117978E
S11307C0019617969C938E931697CE01DF91CF9145
S11307D01F910F910895FA01AA27283051F1203171
S11307E081F1E8946F936E7F6E5F7F4F8F4F9F4FC1
S11307F0AF4FB1E03ED0B4E03CD0670F781F891F03
S11308009A1FA11D680F791F8A1F911DA11D6A0FD0
S1130810711D811D911DA11D20D009F468943F9183
S11308202AE0269F11243019305D3193DEF6CF0182
S11308300895462F4770405D4193B3E00FD0C9F748
S1130840F6CF462F4F70405D4A3318F0495D31FDB5
S11308504052419302D0A9F7EACFB4E0A695979508
S1130860879577956795BA95C9F7009761057105DE
S113087008959B01AC010A2E069457954795379528
S11308802795BA95C9F7620F731F841F951FA01D82
S113089008952F923F924F925F926F927F928F9220
S11308A09F92AF92BF92CF92DF92EF92FF920F93FB
S11308B01F93CF93DF93CDB7DEB7CA1BDB0B0FB605
S11308C0F894DEBF0FBECDBF09942A8839884888C2
S11308D05F846E847D848C849B84AA84B984C88458
S11308E0DF80EE80FD800C811B81AA81B981CE0F4F
S11308F0D11D0FB6F894DEBF0FBECDBFED01089534
S1070900F894FFCF95
S11309047F7F7F7F717F717F7F7F7F7F7E7F7A7B15
S11309147F7F7F7F7F7F7F7F7F717F7F717F7F7FFB
S11309240000606060787F7F7F7F7F6060606060CC
S113093460707078783E3F1F1F0F070100000000AD
S1130944000000000000000000000000000000009F
S1130954000000000000000000000000000000008F
S1130964000000000000000000000000000000007F
S1130974000000000000000000000000000000006F
S1130984FFFFF0F0F0F0F0F0F0F0F0F0F1F3F7FF27
S1130994FFFFF7F1F0F0F0F0F0F0F0F0F0F0F0FF1A
S11309A4000000000000FFFFFFFFFF000000000044
S11309B400000000000083FFFFFFFFFF3C00010173
S11309C40303030303030101000000000101010107
S11309D403030303030000010103030303030301EB
S11309E400000000000001010103030303030000ED
S11309F400010103030303030101000000000000DC
S1130A04E0FF03000103070F1E3E7FFFFFFF9F0F5C
S1130A140F8FFFFFFF7F3E1E0F07030100013FFC02
S1130A24000000000000FFFFFFFFFF1C1C1C1C1C37
S1130A341C1C1C3C78F8F8F8F1EFDFFF7FFFE1C1E0
S1130A448181818181C1E1F9FFFF7F1F878080C09B
S1130A54FFFFFFFFFF78F0E0C0C0C0C0C0E0FFFFAD
S1130A64FFFF3F070000808080FFFFFFFFFF3C780B
S1130A74F0E0C0C0C0C0E0F0FFFFFF7F1F00000033
S1130A840080E0F8FCFFFF3F1F1E3CF8F0E0C0804C
S1130A9400C0E0F0F83C1E1F3FFFFFFCF8E08000BC
S1130AA4000000000000FFFFFFFFFF000000000043
S1130AB40000000000000000FEFFFFFFFFBF818074
S1130AC4808080808080808080808080800000009E
S1130AD4FFFFFFFFFF000000000000000000FFFF15
S1130AE4FFFFFFFF0000000000FFFFFFFFFF000007
S1130AF40000000000000000FFFFFFFFFF000000F3
S1130B0400000000000080C0E07030180C0C0606E1
S1130B14060C0C18183060E0C080000000000000CF
S1130B240000060E0E3EFEFEFEFEFE7E0E0E0600C7
S1130B3400000000000000000080E0F0F8FCFC7EEF
S1130B443E1E0E0E0E060E0E0E1C3878E6060E1E03
S1130B54FEFEFEFEFE0E0E0600000006060EFEFE5F
S1130B64FEFEFEFE0E0E06060EFEFEFEFEFE7E0ECD
S1130B740E06000000060E0EFEFEFEFEFE1E0E060F
S1130B84000000000000000000000000000000005D
S1130B94000000000000010100000000000000004B
S1130BA4000000000000000000000001010100003A
S1130BB4000000000101000000000000000000002B
S1130BC40000000001010100000000000000010118
S1130BD4000000000000000000000000000000000D
S1130BE400000000000000000000000000000000FD
S1130BF400000000000000000000000000000000ED
S1130C040000FFFFCECECECE001F1F1F38381F1F9B
S1130C141C383C1F0F00FFFF1C38381F1F07071F19
S1130C241F3B3B1F1F07071F1F3838FFFFFF000F21
S1130C341F38381CFFFF000F1F1F3B3B1F1F070FEC
S1130C441F1F3838FFFFFF0000000078FCFCCECFE4
S1130C54C7C3181F1F03031F1F181E1F3F3B1B017D
S1130C6418FFFF1818000F1F3B3B3B1F0F001F1FEB
S1130C741C383C1F1F18383F1F07001F3F3B3B19FC
S1130C840000F0F07070707000F0F0F00000F0F00C
S1130C94000000F0F000F0F0F07070F0E080C0E0CC
S1130CA4F07030707000C0E0F07070E0F0F000E0BC
S1130CB4F0707070F0F000C0E0F07030707000C03C
S1130CC4E0F07070F0F0F0000000006070703070BC
S1130CD4F0E00000EEFEFCE00000707030F0F0E0A4
S1130CE400E0F0707000E0F0703030706000F0F0FC
S1130CF4000000F0F00000F0F0F0607030B0F0E0BC
S1130D0403000200010000000700060005000400BF
S1130D1450616765203D2025640A00536869667440
S1130D24203D2025640A00506978656C203D202507
S1070D34640A000049
S9030000FC
